{
	"SendEther.sol": {
		"SendEther": {
			"abi": [
				{
					"inputs": [
						{
							"internalType": "address payable",
							"name": "_to",
							"type": "address"
						}
					],
					"name": "sendEth",
					"outputs": [],
					"stateMutability": "payable",
					"type": "function"
				}
			],
			"devdoc": {
				"kind": "dev",
				"methods": {},
				"version": 1
			},
			"evm": {
				"assembly": "    /* \"SendEther.sol\":60:389  contract SendEther {... */\n  mstore(0x40, 0x80)\n  callvalue\n  dup1\n  iszero\n  tag_1\n  jumpi\n  0x00\n  dup1\n  revert\ntag_1:\n  pop\n  dataSize(sub_0)\n  dup1\n  dataOffset(sub_0)\n  0x00\n  codecopy\n  0x00\n  return\nstop\n\nsub_0: assembly {\n        /* \"SendEther.sol\":60:389  contract SendEther {... */\n      mstore(0x40, 0x80)\n      jumpi(tag_1, lt(calldatasize, 0x04))\n      shr(0xe0, calldataload(0x00))\n      dup1\n      0x76a54c60\n      eq\n      tag_2\n      jumpi\n    tag_1:\n      0x00\n      dup1\n      revert\n        /* \"SendEther.sol\":86:386  function sendEth(address payable _to) public payable {... */\n    tag_2:\n      tag_3\n      0x04\n      dup1\n      calldatasize\n      sub\n      dup2\n      add\n      swap1\n      tag_4\n      swap2\n      swap1\n      tag_5\n      jump\t// in\n    tag_4:\n      tag_6\n      jump\t// in\n    tag_3:\n      stop\n    tag_6:\n        /* \"SendEther.sol\":250:266  uint amounToSend */\n      0x00\n        /* \"SendEther.sol\":269:278  msg.value */\n      callvalue\n        /* \"SendEther.sol\":250:278  uint amounToSend = msg.value */\n      swap1\n      pop\n        /* \"SendEther.sol\":291:300  bool sent */\n      0x00\n        /* \"SendEther.sol\":303:306  _to */\n      dup3\n        /* \"SendEther.sol\":303:311  _to.send */\n      0xffffffffffffffffffffffffffffffffffffffff\n      and\n        /* \"SendEther.sol\":303:324  _to.send(amounToSend) */\n      0x08fc\n        /* \"SendEther.sol\":312:323  amounToSend */\n      dup4\n        /* \"SendEther.sol\":303:324  _to.send(amounToSend) */\n      swap1\n      dup2\n      iszero\n      mul\n      swap1\n      mload(0x40)\n      0x00\n      mload(0x40)\n      dup1\n      dup4\n      sub\n      dup2\n      dup6\n      dup9\n      dup9\n      call\n      swap4\n      pop\n      pop\n      pop\n      pop\n        /* \"SendEther.sol\":291:324  bool sent = _to.send(amounToSend) */\n      swap1\n      pop\n        /* \"SendEther.sol\":351:355  true */\n      0x01\n        /* \"SendEther.sol\":343:355  sent == true */\n      iszero\n      iszero\n        /* \"SendEther.sol\":343:347  sent */\n      dup2\n        /* \"SendEther.sol\":343:355  sent == true */\n      iszero\n      iszero\n      eq\n        /* \"SendEther.sol\":335:378  require(sent == true, \"Failed to send Eth\") */\n      tag_9\n      jumpi\n      mload(0x40)\n      0x08c379a000000000000000000000000000000000000000000000000000000000\n      dup2\n      mstore\n      0x04\n      add\n      tag_10\n      swap1\n      tag_11\n      jump\t// in\n    tag_10:\n      mload(0x40)\n      dup1\n      swap2\n      sub\n      swap1\n      revert\n    tag_9:\n        /* \"SendEther.sol\":139:386  {... */\n      pop\n      pop\n        /* \"SendEther.sol\":86:386  function sendEth(address payable _to) public payable {... */\n      pop\n      jump\t// out\n        /* \"#utility.yul\":88:205   */\n    tag_13:\n        /* \"#utility.yul\":197:198   */\n      0x00\n        /* \"#utility.yul\":194:195   */\n      dup1\n        /* \"#utility.yul\":187:199   */\n      revert\n        /* \"#utility.yul\":334:460   */\n    tag_15:\n        /* \"#utility.yul\":371:378   */\n      0x00\n        /* \"#utility.yul\":411:453   */\n      0xffffffffffffffffffffffffffffffffffffffff\n        /* \"#utility.yul\":404:409   */\n      dup3\n        /* \"#utility.yul\":400:454   */\n      and\n        /* \"#utility.yul\":389:454   */\n      swap1\n      pop\n        /* \"#utility.yul\":334:460   */\n      swap2\n      swap1\n      pop\n      jump\t// out\n        /* \"#utility.yul\":466:570   */\n    tag_16:\n        /* \"#utility.yul\":511:518   */\n      0x00\n        /* \"#utility.yul\":540:564   */\n      tag_28\n        /* \"#utility.yul\":558:563   */\n      dup3\n        /* \"#utility.yul\":540:564   */\n      tag_15\n      jump\t// in\n    tag_28:\n        /* \"#utility.yul\":529:564   */\n      swap1\n      pop\n        /* \"#utility.yul\":466:570   */\n      swap2\n      swap1\n      pop\n      jump\t// out\n        /* \"#utility.yul\":576:714   */\n    tag_17:\n        /* \"#utility.yul\":657:689   */\n      tag_30\n        /* \"#utility.yul\":683:688   */\n      dup2\n        /* \"#utility.yul\":657:689   */\n      tag_16\n      jump\t// in\n    tag_30:\n        /* \"#utility.yul\":650:655   */\n      dup2\n        /* \"#utility.yul\":647:690   */\n      eq\n        /* \"#utility.yul\":637:708   */\n      tag_31\n      jumpi\n        /* \"#utility.yul\":704:705   */\n      0x00\n        /* \"#utility.yul\":701:702   */\n      dup1\n        /* \"#utility.yul\":694:706   */\n      revert\n        /* \"#utility.yul\":637:708   */\n    tag_31:\n        /* \"#utility.yul\":576:714   */\n      pop\n      jump\t// out\n        /* \"#utility.yul\":720:875   */\n    tag_18:\n        /* \"#utility.yul\":774:779   */\n      0x00\n        /* \"#utility.yul\":812:818   */\n      dup2\n        /* \"#utility.yul\":799:819   */\n      calldataload\n        /* \"#utility.yul\":790:819   */\n      swap1\n      pop\n        /* \"#utility.yul\":828:869   */\n      tag_33\n        /* \"#utility.yul\":863:868   */\n      dup2\n        /* \"#utility.yul\":828:869   */\n      tag_17\n      jump\t// in\n    tag_33:\n        /* \"#utility.yul\":720:875   */\n      swap3\n      swap2\n      pop\n      pop\n      jump\t// out\n        /* \"#utility.yul\":881:1226   */\n    tag_5:\n        /* \"#utility.yul\":948:954   */\n      0x00\n        /* \"#utility.yul\":997:999   */\n      0x20\n        /* \"#utility.yul\":985:994   */\n      dup3\n        /* \"#utility.yul\":976:983   */\n      dup5\n        /* \"#utility.yul\":972:995   */\n      sub\n        /* \"#utility.yul\":968:1000   */\n      slt\n        /* \"#utility.yul\":965:1084   */\n      iszero\n      tag_35\n      jumpi\n        /* \"#utility.yul\":1003:1082   */\n      tag_36\n      tag_13\n      jump\t// in\n    tag_36:\n        /* \"#utility.yul\":965:1084   */\n    tag_35:\n        /* \"#utility.yul\":1123:1124   */\n      0x00\n        /* \"#utility.yul\":1148:1209   */\n      tag_37\n        /* \"#utility.yul\":1201:1208   */\n      dup5\n        /* \"#utility.yul\":1192:1198   */\n      dup3\n        /* \"#utility.yul\":1181:1190   */\n      dup6\n        /* \"#utility.yul\":1177:1199   */\n      add\n        /* \"#utility.yul\":1148:1209   */\n      tag_18\n      jump\t// in\n    tag_37:\n        /* \"#utility.yul\":1138:1209   */\n      swap2\n      pop\n        /* \"#utility.yul\":1094:1219   */\n      pop\n        /* \"#utility.yul\":881:1226   */\n      swap3\n      swap2\n      pop\n      pop\n      jump\t// out\n        /* \"#utility.yul\":1232:1401   */\n    tag_19:\n        /* \"#utility.yul\":1316:1327   */\n      0x00\n        /* \"#utility.yul\":1350:1356   */\n      dup3\n        /* \"#utility.yul\":1345:1348   */\n      dup3\n        /* \"#utility.yul\":1338:1357   */\n      mstore\n        /* \"#utility.yul\":1390:1394   */\n      0x20\n        /* \"#utility.yul\":1385:1388   */\n      dup3\n        /* \"#utility.yul\":1381:1395   */\n      add\n        /* \"#utility.yul\":1366:1395   */\n      swap1\n      pop\n        /* \"#utility.yul\":1232:1401   */\n      swap3\n      swap2\n      pop\n      pop\n      jump\t// out\n        /* \"#utility.yul\":1407:1575   */\n    tag_20:\n        /* \"#utility.yul\":1547:1567   */\n      0x4661696c656420746f2073656e64204574680000000000000000000000000000\n        /* \"#utility.yul\":1543:1544   */\n      0x00\n        /* \"#utility.yul\":1535:1541   */\n      dup3\n        /* \"#utility.yul\":1531:1545   */\n      add\n        /* \"#utility.yul\":1524:1568   */\n      mstore\n        /* \"#utility.yul\":1407:1575   */\n      pop\n      jump\t// out\n        /* \"#utility.yul\":1581:1947   */\n    tag_21:\n        /* \"#utility.yul\":1723:1726   */\n      0x00\n        /* \"#utility.yul\":1744:1811   */\n      tag_41\n        /* \"#utility.yul\":1808:1810   */\n      0x12\n        /* \"#utility.yul\":1803:1806   */\n      dup4\n        /* \"#utility.yul\":1744:1811   */\n      tag_19\n      jump\t// in\n    tag_41:\n        /* \"#utility.yul\":1737:1811   */\n      swap2\n      pop\n        /* \"#utility.yul\":1820:1913   */\n      tag_42\n        /* \"#utility.yul\":1909:1912   */\n      dup3\n        /* \"#utility.yul\":1820:1913   */\n      tag_20\n      jump\t// in\n    tag_42:\n        /* \"#utility.yul\":1938:1940   */\n      0x20\n        /* \"#utility.yul\":1933:1936   */\n      dup3\n        /* \"#utility.yul\":1929:1941   */\n      add\n        /* \"#utility.yul\":1922:1941   */\n      swap1\n      pop\n        /* \"#utility.yul\":1581:1947   */\n      swap2\n      swap1\n      pop\n      jump\t// out\n        /* \"#utility.yul\":1953:2372   */\n    tag_11:\n        /* \"#utility.yul\":2119:2123   */\n      0x00\n        /* \"#utility.yul\":2157:2159   */\n      0x20\n        /* \"#utility.yul\":2146:2155   */\n      dup3\n        /* \"#utility.yul\":2142:2160   */\n      add\n        /* \"#utility.yul\":2134:2160   */\n      swap1\n      pop\n        /* \"#utility.yul\":2206:2215   */\n      dup2\n        /* \"#utility.yul\":2200:2204   */\n      dup2\n        /* \"#utility.yul\":2196:2216   */\n      sub\n        /* \"#utility.yul\":2192:2193   */\n      0x00\n        /* \"#utility.yul\":2181:2190   */\n      dup4\n        /* \"#utility.yul\":2177:2194   */\n      add\n        /* \"#utility.yul\":2170:2217   */\n      mstore\n        /* \"#utility.yul\":2234:2365   */\n      tag_44\n        /* \"#utility.yul\":2360:2364   */\n      dup2\n        /* \"#utility.yul\":2234:2365   */\n      tag_21\n      jump\t// in\n    tag_44:\n        /* \"#utility.yul\":2226:2365   */\n      swap1\n      pop\n        /* \"#utility.yul\":1953:2372   */\n      swap2\n      swap1\n      pop\n      jump\t// out\n\n    auxdata: 0xa2646970667358221220b5ea513ee4ed54ee6b1dd2f49ba5abd10578ed8d728a8171d82f057a05b533fc64736f6c634300081a0033\n}\n",
				"bytecode": {
					"linkReferences": {},
					"object": "6080604052348015600e575f80fd5b506101fb8061001c5f395ff3fe60806040526004361061001d575f3560e01c806376a54c6014610021575b5f80fd5b61003b60048036038101906100369190610122565b61003d565b005b5f3490505f8273ffffffffffffffffffffffffffffffffffffffff166108fc8390811502906040515f60405180830381858888f19350505050905060011515811515146100bf576040517f08c379a00000000000000000000000000000000000000000000000000000000081526004016100b6906101a7565b60405180910390fd5b505050565b5f80fd5b5f73ffffffffffffffffffffffffffffffffffffffff82169050919050565b5f6100f1826100c8565b9050919050565b610101816100e7565b811461010b575f80fd5b50565b5f8135905061011c816100f8565b92915050565b5f60208284031215610137576101366100c4565b5b5f6101448482850161010e565b91505092915050565b5f82825260208201905092915050565b7f4661696c656420746f2073656e642045746800000000000000000000000000005f82015250565b5f61019160128361014d565b915061019c8261015d565b602082019050919050565b5f6020820190508181035f8301526101be81610185565b905091905056fea2646970667358221220b5ea513ee4ed54ee6b1dd2f49ba5abd10578ed8d728a8171d82f057a05b533fc64736f6c634300081a0033",
					"opcodes": "PUSH1 0x80 PUSH1 0x40 MSTORE CALLVALUE DUP1 ISZERO PUSH1 0xE JUMPI PUSH0 DUP1 REVERT JUMPDEST POP PUSH2 0x1FB DUP1 PUSH2 0x1C PUSH0 CODECOPY PUSH0 RETURN INVALID PUSH1 0x80 PUSH1 0x40 MSTORE PUSH1 0x4 CALLDATASIZE LT PUSH2 0x1D JUMPI PUSH0 CALLDATALOAD PUSH1 0xE0 SHR DUP1 PUSH4 0x76A54C60 EQ PUSH2 0x21 JUMPI JUMPDEST PUSH0 DUP1 REVERT JUMPDEST PUSH2 0x3B PUSH1 0x4 DUP1 CALLDATASIZE SUB DUP2 ADD SWAP1 PUSH2 0x36 SWAP2 SWAP1 PUSH2 0x122 JUMP JUMPDEST PUSH2 0x3D JUMP JUMPDEST STOP JUMPDEST PUSH0 CALLVALUE SWAP1 POP PUSH0 DUP3 PUSH20 0xFFFFFFFFFFFFFFFFFFFFFFFFFFFFFFFFFFFFFFFF AND PUSH2 0x8FC DUP4 SWAP1 DUP2 ISZERO MUL SWAP1 PUSH1 0x40 MLOAD PUSH0 PUSH1 0x40 MLOAD DUP1 DUP4 SUB DUP2 DUP6 DUP9 DUP9 CALL SWAP4 POP POP POP POP SWAP1 POP PUSH1 0x1 ISZERO ISZERO DUP2 ISZERO ISZERO EQ PUSH2 0xBF JUMPI PUSH1 0x40 MLOAD PUSH32 0x8C379A000000000000000000000000000000000000000000000000000000000 DUP2 MSTORE PUSH1 0x4 ADD PUSH2 0xB6 SWAP1 PUSH2 0x1A7 JUMP JUMPDEST PUSH1 0x40 MLOAD DUP1 SWAP2 SUB SWAP1 REVERT JUMPDEST POP POP POP JUMP JUMPDEST PUSH0 DUP1 REVERT JUMPDEST PUSH0 PUSH20 0xFFFFFFFFFFFFFFFFFFFFFFFFFFFFFFFFFFFFFFFF DUP3 AND SWAP1 POP SWAP2 SWAP1 POP JUMP JUMPDEST PUSH0 PUSH2 0xF1 DUP3 PUSH2 0xC8 JUMP JUMPDEST SWAP1 POP SWAP2 SWAP1 POP JUMP JUMPDEST PUSH2 0x101 DUP2 PUSH2 0xE7 JUMP JUMPDEST DUP2 EQ PUSH2 0x10B JUMPI PUSH0 DUP1 REVERT JUMPDEST POP JUMP JUMPDEST PUSH0 DUP2 CALLDATALOAD SWAP1 POP PUSH2 0x11C DUP2 PUSH2 0xF8 JUMP JUMPDEST SWAP3 SWAP2 POP POP JUMP JUMPDEST PUSH0 PUSH1 0x20 DUP3 DUP5 SUB SLT ISZERO PUSH2 0x137 JUMPI PUSH2 0x136 PUSH2 0xC4 JUMP JUMPDEST JUMPDEST PUSH0 PUSH2 0x144 DUP5 DUP3 DUP6 ADD PUSH2 0x10E JUMP JUMPDEST SWAP2 POP POP SWAP3 SWAP2 POP POP JUMP JUMPDEST PUSH0 DUP3 DUP3 MSTORE PUSH1 0x20 DUP3 ADD SWAP1 POP SWAP3 SWAP2 POP POP JUMP JUMPDEST PUSH32 0x4661696C656420746F2073656E64204574680000000000000000000000000000 PUSH0 DUP3 ADD MSTORE POP JUMP JUMPDEST PUSH0 PUSH2 0x191 PUSH1 0x12 DUP4 PUSH2 0x14D JUMP JUMPDEST SWAP2 POP PUSH2 0x19C DUP3 PUSH2 0x15D JUMP JUMPDEST PUSH1 0x20 DUP3 ADD SWAP1 POP SWAP2 SWAP1 POP JUMP JUMPDEST PUSH0 PUSH1 0x20 DUP3 ADD SWAP1 POP DUP2 DUP2 SUB PUSH0 DUP4 ADD MSTORE PUSH2 0x1BE DUP2 PUSH2 0x185 JUMP JUMPDEST SWAP1 POP SWAP2 SWAP1 POP JUMP INVALID LOG2 PUSH5 0x6970667358 0x22 SLT KECCAK256 0xB5 0xEA MLOAD RETURNDATACOPY 0xE4 0xED SLOAD 0xEE PUSH12 0x1DD2F49BA5ABD10578ED8D72 DUP11 DUP2 PUSH18 0xD82F057A05B533FC64736F6C634300081A00 CALLER "
				},
				"gasEstimates": {
					"creation": {
						"codeDepositCost": "101400",
						"executionCost": "145",
						"totalCost": "101545"
					},
					"external": {
						"sendEth(address)": "infinite"
					}
				},
				"methodIdentifiers": {
					"sendEth(address)": "76a54c60"
				}
			},
			"storageLayout": {
				"storage": [],
				"types": null
			},
			"userdoc": {
				"kind": "user",
				"methods": {},
				"version": 1
			}
		}
	}
}